{
  "contractName": "NFTCowCert",
  "abi": [
    {
      "inputs": [],
      "stateMutability": "nonpayable",
      "type": "constructor"
    },
    {
      "anonymous": false,
      "inputs": [
        {
          "indexed": true,
          "internalType": "address",
          "name": "owner",
          "type": "address"
        },
        {
          "indexed": true,
          "internalType": "address",
          "name": "approved",
          "type": "address"
        },
        {
          "indexed": true,
          "internalType": "uint256",
          "name": "tokenId",
          "type": "uint256"
        }
      ],
      "name": "Approval",
      "type": "event"
    },
    {
      "anonymous": false,
      "inputs": [
        {
          "indexed": true,
          "internalType": "address",
          "name": "owner",
          "type": "address"
        },
        {
          "indexed": true,
          "internalType": "address",
          "name": "operator",
          "type": "address"
        },
        {
          "indexed": false,
          "internalType": "bool",
          "name": "approved",
          "type": "bool"
        }
      ],
      "name": "ApprovalForAll",
      "type": "event"
    },
    {
      "anonymous": false,
      "inputs": [
        {
          "indexed": false,
          "internalType": "uint256",
          "name": "id",
          "type": "uint256"
        },
        {
          "indexed": false,
          "internalType": "string",
          "name": "tokendid",
          "type": "string"
        },
        {
          "indexed": false,
          "internalType": "string",
          "name": "cowCertlist",
          "type": "string"
        },
        {
          "indexed": false,
          "internalType": "string",
          "name": "imgPath",
          "type": "string"
        }
      ],
      "name": "TaskCreateNFTCowCert",
      "type": "event"
    },
    {
      "anonymous": false,
      "inputs": [
        {
          "indexed": false,
          "internalType": "uint256",
          "name": "userId",
          "type": "uint256"
        },
        {
          "indexed": false,
          "internalType": "address",
          "name": "government",
          "type": "address"
        },
        {
          "indexed": false,
          "internalType": "string",
          "name": "username",
          "type": "string"
        }
      ],
      "name": "TaskCreatedadmin",
      "type": "event"
    },
    {
      "anonymous": false,
      "inputs": [
        {
          "indexed": true,
          "internalType": "address",
          "name": "from",
          "type": "address"
        },
        {
          "indexed": true,
          "internalType": "address",
          "name": "to",
          "type": "address"
        },
        {
          "indexed": true,
          "internalType": "uint256",
          "name": "tokenId",
          "type": "uint256"
        }
      ],
      "name": "Transfer",
      "type": "event"
    },
    {
      "inputs": [
        {
          "internalType": "uint256",
          "name": "",
          "type": "uint256"
        }
      ],
      "name": "BlocklistNFTCow",
      "outputs": [
        {
          "internalType": "uint256",
          "name": "id",
          "type": "uint256"
        },
        {
          "internalType": "string",
          "name": "tokendId",
          "type": "string"
        },
        {
          "internalType": "string",
          "name": "cowCertlist",
          "type": "string"
        },
        {
          "internalType": "string",
          "name": "imgPath",
          "type": "string"
        }
      ],
      "stateMutability": "view",
      "type": "function",
      "constant": true
    },
    {
      "inputs": [],
      "name": "NFTCowCount",
      "outputs": [
        {
          "internalType": "uint256",
          "name": "",
          "type": "uint256"
        }
      ],
      "stateMutability": "view",
      "type": "function",
      "constant": true
    },
    {
      "inputs": [
        {
          "internalType": "uint256",
          "name": "",
          "type": "uint256"
        }
      ],
      "name": "TaskMapOwner",
      "outputs": [
        {
          "internalType": "uint256",
          "name": "userId",
          "type": "uint256"
        },
        {
          "internalType": "address",
          "name": "government",
          "type": "address"
        },
        {
          "internalType": "string",
          "name": "username",
          "type": "string"
        }
      ],
      "stateMutability": "view",
      "type": "function",
      "constant": true
    },
    {
      "inputs": [
        {
          "internalType": "address",
          "name": "to",
          "type": "address"
        },
        {
          "internalType": "uint256",
          "name": "tokenId",
          "type": "uint256"
        }
      ],
      "name": "approve",
      "outputs": [],
      "stateMutability": "nonpayable",
      "type": "function"
    },
    {
      "inputs": [
        {
          "internalType": "address",
          "name": "owner",
          "type": "address"
        }
      ],
      "name": "balanceOf",
      "outputs": [
        {
          "internalType": "uint256",
          "name": "",
          "type": "uint256"
        }
      ],
      "stateMutability": "view",
      "type": "function",
      "constant": true
    },
    {
      "inputs": [
        {
          "internalType": "uint256",
          "name": "",
          "type": "uint256"
        }
      ],
      "name": "blockCowcert",
      "outputs": [
        {
          "internalType": "bool",
          "name": "",
          "type": "bool"
        }
      ],
      "stateMutability": "view",
      "type": "function",
      "constant": true
    },
    {
      "inputs": [
        {
          "internalType": "uint256",
          "name": "tokenId",
          "type": "uint256"
        }
      ],
      "name": "getApproved",
      "outputs": [
        {
          "internalType": "address",
          "name": "",
          "type": "address"
        }
      ],
      "stateMutability": "view",
      "type": "function",
      "constant": true
    },
    {
      "inputs": [
        {
          "internalType": "address",
          "name": "owner",
          "type": "address"
        },
        {
          "internalType": "address",
          "name": "operator",
          "type": "address"
        }
      ],
      "name": "isApprovedForAll",
      "outputs": [
        {
          "internalType": "bool",
          "name": "",
          "type": "bool"
        }
      ],
      "stateMutability": "view",
      "type": "function",
      "constant": true
    },
    {
      "inputs": [],
      "name": "name",
      "outputs": [
        {
          "internalType": "string",
          "name": "",
          "type": "string"
        }
      ],
      "stateMutability": "view",
      "type": "function",
      "constant": true
    },
    {
      "inputs": [],
      "name": "ownerCount",
      "outputs": [
        {
          "internalType": "uint256",
          "name": "",
          "type": "uint256"
        }
      ],
      "stateMutability": "view",
      "type": "function",
      "constant": true
    },
    {
      "inputs": [
        {
          "internalType": "uint256",
          "name": "tokenId",
          "type": "uint256"
        }
      ],
      "name": "ownerOf",
      "outputs": [
        {
          "internalType": "address",
          "name": "",
          "type": "address"
        }
      ],
      "stateMutability": "view",
      "type": "function",
      "constant": true
    },
    {
      "inputs": [
        {
          "internalType": "address",
          "name": "operator",
          "type": "address"
        },
        {
          "internalType": "bool",
          "name": "approved",
          "type": "bool"
        }
      ],
      "name": "setApprovalForAll",
      "outputs": [],
      "stateMutability": "nonpayable",
      "type": "function"
    },
    {
      "inputs": [
        {
          "internalType": "bytes4",
          "name": "interfaceId",
          "type": "bytes4"
        }
      ],
      "name": "supportsInterface",
      "outputs": [
        {
          "internalType": "bool",
          "name": "",
          "type": "bool"
        }
      ],
      "stateMutability": "view",
      "type": "function",
      "constant": true
    },
    {
      "inputs": [],
      "name": "symbol",
      "outputs": [
        {
          "internalType": "string",
          "name": "",
          "type": "string"
        }
      ],
      "stateMutability": "view",
      "type": "function",
      "constant": true
    },
    {
      "inputs": [
        {
          "internalType": "uint256",
          "name": "tokenId",
          "type": "uint256"
        }
      ],
      "name": "tokenURI",
      "outputs": [
        {
          "internalType": "string",
          "name": "",
          "type": "string"
        }
      ],
      "stateMutability": "view",
      "type": "function",
      "constant": true
    },
    {
      "inputs": [
        {
          "internalType": "address",
          "name": "from",
          "type": "address"
        },
        {
          "internalType": "address",
          "name": "to",
          "type": "address"
        },
        {
          "internalType": "uint256",
          "name": "tokenId",
          "type": "uint256"
        }
      ],
      "name": "transferFrom",
      "outputs": [],
      "stateMutability": "nonpayable",
      "type": "function"
    },
    {
      "inputs": [
        {
          "internalType": "address",
          "name": "_government",
          "type": "address"
        },
        {
          "internalType": "string",
          "name": "_username",
          "type": "string"
        }
      ],
      "name": "addNFTCowAdmin",
      "outputs": [],
      "stateMutability": "nonpayable",
      "type": "function"
    },
    {
      "inputs": [
        {
          "internalType": "address",
          "name": "_custCowCert",
          "type": "address"
        },
        {
          "internalType": "string",
          "name": "_tokenId",
          "type": "string"
        },
        {
          "internalType": "string",
          "name": "_cowCertlist",
          "type": "string"
        },
        {
          "internalType": "string",
          "name": "_imgPath",
          "type": "string"
        }
      ],
      "name": "tokenMintCowCert",
      "outputs": [],
      "stateMutability": "nonpayable",
      "type": "function"
    },
    {
      "inputs": [
        {
          "internalType": "uint256",
          "name": "_tokenId",
          "type": "uint256"
        }
      ],
      "name": "blockNFTCow",
      "outputs": [],
      "stateMutability": "nonpayable",
      "type": "function"
    },
    {
      "inputs": [
        {
          "internalType": "uint256",
          "name": "_tokenId",
          "type": "uint256"
        }
      ],
      "name": "unBlockNFTCow",
      "outputs": [],
      "stateMutability": "nonpayable",
      "type": "function"
    },
    {
      "inputs": [
        {
          "internalType": "address",
          "name": "_from",
          "type": "address"
        },
        {
          "internalType": "address",
          "name": "_to",
          "type": "address"
        },
        {
          "internalType": "uint256",
          "name": "_tokenId",
          "type": "uint256"
        }
      ],
      "name": "safeTransferFrom",
      "outputs": [],
      "stateMutability": "nonpayable",
      "type": "function"
    },
    {
      "inputs": [
        {
          "internalType": "address",
          "name": "from",
          "type": "address"
        },
        {
          "internalType": "address",
          "name": "to",
          "type": "address"
        },
        {
          "internalType": "uint256",
          "name": "tokenId",
          "type": "uint256"
        },
        {
          "internalType": "bytes",
          "name": "data",
          "type": "bytes"
        }
      ],
      "name": "safeTransferFrom",
      "outputs": [],
      "stateMutability": "nonpayable",
      "type": "function"
    }
  ],
  "bytecode": "0x6080604052600060065560006007553480156200001b57600080fd5b5060405180606001604052806022815260200162003e12602291396040518060400160405280600581526020017f4e4654434300000000000000000000000000000000000000000000000000000081525081600090816200007d9190620003fb565b5080600190816200008f9190620003fb565b505050604051806060016040528060065481526020013373ffffffffffffffffffffffffffffffffffffffff1681526020016040518060400160405280600881526020017f53757261646174680000000000000000000000000000000000000000000000008152508152506009600060065481526020019081526020016000206000820151816000015560208201518160010160006101000a81548173ffffffffffffffffffffffffffffffffffffffff021916908373ffffffffffffffffffffffffffffffffffffffff1602179055506040820151816002019081620001779190620003fb565b50905050620004e2565b600081519050919050565b7f4e487b7100000000000000000000000000000000000000000000000000000000600052604160045260246000fd5b7f4e487b7100000000000000000000000000000000000000000000000000000000600052602260045260246000fd5b600060028204905060018216806200020357607f821691505b602082108103620002195762000218620001bb565b5b50919050565b60008190508160005260206000209050919050565b60006020601f8301049050919050565b600082821b905092915050565b600060088302620002837fffffffffffffffffffffffffffffffffffffffffffffffffffffffffffffffff8262000244565b6200028f868362000244565b95508019841693508086168417925050509392505050565b6000819050919050565b6000819050919050565b6000620002dc620002d6620002d084620002a7565b620002b1565b620002a7565b9050919050565b6000819050919050565b620002f883620002bb565b620003106200030782620002e3565b84845462000251565b825550505050565b600090565b6200032762000318565b62000334818484620002ed565b505050565b5b818110156200035c57620003506000826200031d565b6001810190506200033a565b5050565b601f821115620003ab5762000375816200021f565b620003808462000234565b8101602085101562000390578190505b620003a86200039f8562000234565b83018262000339565b50505b505050565b600082821c905092915050565b6000620003d060001984600802620003b0565b1980831691505092915050565b6000620003eb8383620003bd565b9150826002028217905092915050565b620004068262000181565b67ffffffffffffffff8111156200042257620004216200018c565b5b6200042e8254620001ea565b6200043b82828562000360565b600060209050601f8311600181146200047357600084156200045e578287015190505b6200046a8582620003dd565b865550620004da565b601f19841662000483866200021f565b60005b82811015620004ad5784890151825560018201915060208501945060208101905062000486565b86831015620004cd5784890151620004c9601f891682620003bd565b8355505b6001600288020188555050505b505050505050565b61392080620004f26000396000f3fe608060405234801561001057600080fd5b50600436106101425760003560e01c80635f9db618116100b8578063af3e4bf51161007c578063af3e4bf51461038c578063b88d4fde146103a8578063c87b56dd146103c4578063e985e9c5146103f4578063f11a068414610424578063f741721b1461045457610142565b80635f9db618146102bf5780636352211e146102f257806370a082311461032257806395d89b4114610352578063a22cb4651461037057610142565b806316533d3c1161010a57806316533d3c146101ff57806323b872dd1461021b57806342842e0e146102375780634fe5e710146102535780634ff74d9f1461026f57806359d51d0b1461028d57610142565b806301ffc9a71461014757806306fdde0314610177578063081812fc14610195578063095ea7b3146101c55780630db02622146101e1575b600080fd5b610161600480360381019061015c9190612571565b610470565b60405161016e91906125b9565b60405180910390f35b61017f610552565b60405161018c9190612664565b60405180910390f35b6101af60048036038101906101aa91906126bc565b6105e4565b6040516101bc919061272a565b60405180910390f35b6101df60048036038101906101da9190612771565b61062a565b005b6101e9610741565b6040516101f691906127c0565b60405180910390f35b61021960048036038101906102149190612910565b610747565b005b6102356004803603810190610230919061296c565b6108f6565b005b610251600480360381019061024c919061296c565b610956565b005b61026d600480360381019061026891906129bf565b610997565b005b610277610c5f565b60405161028491906127c0565b60405180910390f35b6102a760048036038101906102a291906126bc565b610c65565b6040516102b693929190612a7a565b60405180910390f35b6102d960048036038101906102d491906126bc565b610d37565b6040516102e99493929190612ab8565b60405180910390f35b61030c600480360381019061030791906126bc565b610eff565b604051610319919061272a565b60405180910390f35b61033c60048036038101906103379190612b12565b610f85565b60405161034991906127c0565b60405180910390f35b61035a61103c565b6040516103679190612664565b60405180910390f35b61038a60048036038101906103859190612b6b565b6110ce565b005b6103a660048036038101906103a191906126bc565b6110e4565b005b6103c260048036038101906103bd9190612c4c565b6112eb565b005b6103de60048036038101906103d991906126bc565b61134d565b6040516103eb9190612664565b60405180910390f35b61040e60048036038101906104099190612ccf565b6113b5565b60405161041b91906125b9565b60405180910390f35b61043e600480360381019061043991906126bc565b611449565b60405161044b91906125b9565b60405180910390f35b61046e600480360381019061046991906126bc565b611469565b005b60007f80ac58cd000000000000000000000000000000000000000000000000000000007bffffffffffffffffffffffffffffffffffffffffffffffffffffffff1916827bffffffffffffffffffffffffffffffffffffffffffffffffffffffff1916148061053b57507f5b5e139f000000000000000000000000000000000000000000000000000000007bffffffffffffffffffffffffffffffffffffffffffffffffffffffff1916827bffffffffffffffffffffffffffffffffffffffffffffffffffffffff1916145b8061054b575061054a82611670565b5b9050919050565b60606000805461056190612d3e565b80601f016020809104026020016040519081016040528092919081815260200182805461058d90612d3e565b80156105da5780601f106105af576101008083540402835291602001916105da565b820191906000526020600020905b8154815290600101906020018083116105bd57829003601f168201915b5050505050905090565b60006105ef826116da565b6004600083815260200190815260200160002060009054906101000a900473ffffffffffffffffffffffffffffffffffffffff169050919050565b600061063582610eff565b90508073ffffffffffffffffffffffffffffffffffffffff168373ffffffffffffffffffffffffffffffffffffffff16036106a5576040517f08c379a000000000000000000000000000000000000000000000000000000000815260040161069c90612de1565b60405180910390fd5b8073ffffffffffffffffffffffffffffffffffffffff166106c4611725565b73ffffffffffffffffffffffffffffffffffffffff1614806106f357506106f2816106ed611725565b6113b5565b5b610732576040517f08c379a000000000000000000000000000000000000000000000000000000000815260040161072990612e73565b60405180910390fd5b61073c838361172d565b505050565b60065481565b6009600080815260200190815260200160002060010160009054906101000a900473ffffffffffffffffffffffffffffffffffffffff1673ffffffffffffffffffffffffffffffffffffffff163373ffffffffffffffffffffffffffffffffffffffff16146107eb576040517f08c379a00000000000000000000000000000000000000000000000000000000081526004016107e290612f05565b60405180910390fd5b600660008154809291906107fe90612f54565b9190505550604051806060016040528060065481526020018373ffffffffffffffffffffffffffffffffffffffff168152602001828152506009600060065481526020019081526020016000206000820151816000015560208201518160010160006101000a81548173ffffffffffffffffffffffffffffffffffffffff021916908373ffffffffffffffffffffffffffffffffffffffff16021790555060408201518160020190816108b19190613148565b509050507fef378b7ae33a273f09c904a9a8601d264935a173fd8aa7a9b00b89839df7fa6e60065483836040516108ea93929190612a7a565b60405180910390a15050565b610907610901611725565b826117e6565b610946576040517f08c379a000000000000000000000000000000000000000000000000000000000815260040161093d9061328c565b60405180910390fd5b61095183838361187b565b505050565b60001515600b600083815260200190815260200160002060009054906101000a900460ff1615151461098757600080fd5b610992838383611b74565b505050565b60005b6006548111610ac8573373ffffffffffffffffffffffffffffffffffffffff166009600083815260200190815260200160002060010160009054906101000a900473ffffffffffffffffffffffffffffffffffffffff1673ffffffffffffffffffffffffffffffffffffffff1603610ab5576009600082815260200190815260200160002060010160009054906101000a900473ffffffffffffffffffffffffffffffffffffffff1673ffffffffffffffffffffffffffffffffffffffff163373ffffffffffffffffffffffffffffffffffffffff1614610ab0576040517f08c379a0000000000000000000000000000000000000000000000000000000008152600401610aa7906132f8565b60405180910390fd5b610ac8565b8080610ac090612f54565b91505061099a565b5060096000600654815260200190815260200160002060010160009054906101000a900473ffffffffffffffffffffffffffffffffffffffff1673ffffffffffffffffffffffffffffffffffffffff163373ffffffffffffffffffffffffffffffffffffffff1614610b6f576040517f08c379a0000000000000000000000000000000000000000000000000000000008152600401610b66906132f8565b60405180910390fd5b60076000815480929190610b8290612f54565b91905055506040518060800160405280600754815260200184815260200183815260200182815250600a60006007548152602001908152602001600020600082015181600001556020820151816001019081610bde9190613148565b506040820151816002019081610bf49190613148565b506060820151816003019081610c0a9190613148565b50905050610c1a84600754611b94565b7f9de026ade87f36b90ecdfb150976508b52a8aaa74d219db093f29324e42409b8600754848484604051610c519493929190612ab8565b60405180910390a150505050565b60075481565b60096020528060005260406000206000915090508060000154908060010160009054906101000a900473ffffffffffffffffffffffffffffffffffffffff1690806002018054610cb490612d3e565b80601f0160208091040260200160405190810160405280929190818152602001828054610ce090612d3e565b8015610d2d5780601f10610d0257610100808354040283529160200191610d2d565b820191906000526020600020905b815481529060010190602001808311610d1057829003601f168201915b5050505050905083565b600a602052806000526040600020600091509050806000015490806001018054610d6090612d3e565b80601f0160208091040260200160405190810160405280929190818152602001828054610d8c90612d3e565b8015610dd95780601f10610dae57610100808354040283529160200191610dd9565b820191906000526020600020905b815481529060010190602001808311610dbc57829003601f168201915b505050505090806002018054610dee90612d3e565b80601f0160208091040260200160405190810160405280929190818152602001828054610e1a90612d3e565b8015610e675780601f10610e3c57610100808354040283529160200191610e67565b820191906000526020600020905b815481529060010190602001808311610e4a57829003601f168201915b505050505090806003018054610e7c90612d3e565b80601f0160208091040260200160405190810160405280929190818152602001828054610ea890612d3e565b8015610ef55780601f10610eca57610100808354040283529160200191610ef5565b820191906000526020600020905b815481529060010190602001808311610ed857829003601f168201915b5050505050905084565b600080610f0b83611db1565b9050600073ffffffffffffffffffffffffffffffffffffffff168173ffffffffffffffffffffffffffffffffffffffff1603610f7c576040517f08c379a0000000000000000000000000000000000000000000000000000000008152600401610f7390613364565b60405180910390fd5b80915050919050565b60008073ffffffffffffffffffffffffffffffffffffffff168273ffffffffffffffffffffffffffffffffffffffff1603610ff5576040517f08c379a0000000000000000000000000000000000000000000000000000000008152600401610fec906133f6565b60405180910390fd5b600360008373ffffffffffffffffffffffffffffffffffffffff1673ffffffffffffffffffffffffffffffffffffffff168152602001908152602001600020549050919050565b60606001805461104b90612d3e565b80601f016020809104026020016040519081016040528092919081815260200182805461107790612d3e565b80156110c45780601f10611099576101008083540402835291602001916110c4565b820191906000526020600020905b8154815290600101906020018083116110a757829003601f168201915b5050505050905090565b6110e06110d9611725565b8383611dee565b5050565b60005b6006548111611215573373ffffffffffffffffffffffffffffffffffffffff166009600083815260200190815260200160002060010160009054906101000a900473ffffffffffffffffffffffffffffffffffffffff1673ffffffffffffffffffffffffffffffffffffffff1603611202576009600082815260200190815260200160002060010160009054906101000a900473ffffffffffffffffffffffffffffffffffffffff1673ffffffffffffffffffffffffffffffffffffffff163373ffffffffffffffffffffffffffffffffffffffff16146111fd576040517f08c379a00000000000000000000000000000000000000000000000000000000081526004016111f4906132f8565b60405180910390fd5b611215565b808061120d90612f54565b9150506110e7565b5060096000600654815260200190815260200160002060010160009054906101000a900473ffffffffffffffffffffffffffffffffffffffff1673ffffffffffffffffffffffffffffffffffffffff163373ffffffffffffffffffffffffffffffffffffffff16146112bc576040517f08c379a00000000000000000000000000000000000000000000000000000000081526004016112b3906132f8565b60405180910390fd5b6000600b600083815260200190815260200160002060006101000a81548160ff02191690831515021790555050565b6112fc6112f6611725565b836117e6565b61133b576040517f08c379a00000000000000000000000000000000000000000000000000000000081526004016113329061328c565b60405180910390fd5b61134784848484611f5a565b50505050565b6060611358826116da565b6000611362611fb6565b9050600081511161138257604051806020016040528060008152506113ad565b8061138c84611fcd565b60405160200161139d929190613452565b6040516020818303038152906040525b915050919050565b6000600560008473ffffffffffffffffffffffffffffffffffffffff1673ffffffffffffffffffffffffffffffffffffffff16815260200190815260200160002060008373ffffffffffffffffffffffffffffffffffffffff1673ffffffffffffffffffffffffffffffffffffffff16815260200190815260200160002060009054906101000a900460ff16905092915050565b600b6020528060005260406000206000915054906101000a900460ff1681565b60005b600654811161159a573373ffffffffffffffffffffffffffffffffffffffff166009600083815260200190815260200160002060010160009054906101000a900473ffffffffffffffffffffffffffffffffffffffff1673ffffffffffffffffffffffffffffffffffffffff1603611587576009600082815260200190815260200160002060010160009054906101000a900473ffffffffffffffffffffffffffffffffffffffff1673ffffffffffffffffffffffffffffffffffffffff163373ffffffffffffffffffffffffffffffffffffffff1614611582576040517f08c379a0000000000000000000000000000000000000000000000000000000008152600401611579906132f8565b60405180910390fd5b61159a565b808061159290612f54565b91505061146c565b5060096000600654815260200190815260200160002060010160009054906101000a900473ffffffffffffffffffffffffffffffffffffffff1673ffffffffffffffffffffffffffffffffffffffff163373ffffffffffffffffffffffffffffffffffffffff1614611641576040517f08c379a0000000000000000000000000000000000000000000000000000000008152600401611638906132f8565b60405180910390fd5b6001600b600083815260200190815260200160002060006101000a81548160ff02191690831515021790555050565b60007f01ffc9a7000000000000000000000000000000000000000000000000000000007bffffffffffffffffffffffffffffffffffffffffffffffffffffffff1916827bffffffffffffffffffffffffffffffffffffffffffffffffffffffff1916149050919050565b6116e38161209b565b611722576040517f08c379a000000000000000000000000000000000000000000000000000000000815260040161171990613364565b60405180910390fd5b50565b600033905090565b816004600083815260200190815260200160002060006101000a81548173ffffffffffffffffffffffffffffffffffffffff021916908373ffffffffffffffffffffffffffffffffffffffff160217905550808273ffffffffffffffffffffffffffffffffffffffff166117a083610eff565b73ffffffffffffffffffffffffffffffffffffffff167f8c5be1e5ebec7d5bd14f71427d1e84f3dd0314c0f7b2291e5b200ac8c7c3b92560405160405180910390a45050565b6000806117f283610eff565b90508073ffffffffffffffffffffffffffffffffffffffff168473ffffffffffffffffffffffffffffffffffffffff161480611834575061183381856113b5565b5b8061187257508373ffffffffffffffffffffffffffffffffffffffff1661185a846105e4565b73ffffffffffffffffffffffffffffffffffffffff16145b91505092915050565b8273ffffffffffffffffffffffffffffffffffffffff1661189b82610eff565b73ffffffffffffffffffffffffffffffffffffffff16146118f1576040517f08c379a00000000000000000000000000000000000000000000000000000000081526004016118e8906134e8565b60405180910390fd5b600073ffffffffffffffffffffffffffffffffffffffff168273ffffffffffffffffffffffffffffffffffffffff1603611960576040517f08c379a00000000000000000000000000000000000000000000000000000000081526004016119579061357a565b60405180910390fd5b61196d83838360016120dc565b8273ffffffffffffffffffffffffffffffffffffffff1661198d82610eff565b73ffffffffffffffffffffffffffffffffffffffff16146119e3576040517f08c379a00000000000000000000000000000000000000000000000000000000081526004016119da906134e8565b60405180910390fd5b6004600082815260200190815260200160002060006101000a81549073ffffffffffffffffffffffffffffffffffffffff02191690556001600360008573ffffffffffffffffffffffffffffffffffffffff1673ffffffffffffffffffffffffffffffffffffffff168152602001908152602001600020600082825403925050819055506001600360008473ffffffffffffffffffffffffffffffffffffffff1673ffffffffffffffffffffffffffffffffffffffff16815260200190815260200160002060008282540192505081905550816002600083815260200190815260200160002060006101000a81548173ffffffffffffffffffffffffffffffffffffffff021916908373ffffffffffffffffffffffffffffffffffffffff160217905550808273ffffffffffffffffffffffffffffffffffffffff168473ffffffffffffffffffffffffffffffffffffffff167fddf252ad1be2c89b69c2b068fc378daa952ba7f163c4a11628f55a4df523b3ef60405160405180910390a4611b6f8383836001612202565b505050565b611b8f838383604051806020016040528060008152506112eb565b505050565b600073ffffffffffffffffffffffffffffffffffffffff168273ffffffffffffffffffffffffffffffffffffffff1603611c03576040517f08c379a0000000000000000000000000000000000000000000000000000000008152600401611bfa906135e6565b60405180910390fd5b611c0c8161209b565b15611c4c576040517f08c379a0000000000000000000000000000000000000000000000000000000008152600401611c4390613652565b60405180910390fd5b611c5a6000838360016120dc565b611c638161209b565b15611ca3576040517f08c379a0000000000000000000000000000000000000000000000000000000008152600401611c9a90613652565b60405180910390fd5b6001600360008473ffffffffffffffffffffffffffffffffffffffff1673ffffffffffffffffffffffffffffffffffffffff16815260200190815260200160002060008282540192505081905550816002600083815260200190815260200160002060006101000a81548173ffffffffffffffffffffffffffffffffffffffff021916908373ffffffffffffffffffffffffffffffffffffffff160217905550808273ffffffffffffffffffffffffffffffffffffffff16600073ffffffffffffffffffffffffffffffffffffffff167fddf252ad1be2c89b69c2b068fc378daa952ba7f163c4a11628f55a4df523b3ef60405160405180910390a4611dad600083836001612202565b5050565b60006002600083815260200190815260200160002060009054906101000a900473ffffffffffffffffffffffffffffffffffffffff169050919050565b8173ffffffffffffffffffffffffffffffffffffffff168373ffffffffffffffffffffffffffffffffffffffff1603611e5c576040517f08c379a0000000000000000000000000000000000000000000000000000000008152600401611e53906136be565b60405180910390fd5b80600560008573ffffffffffffffffffffffffffffffffffffffff1673ffffffffffffffffffffffffffffffffffffffff16815260200190815260200160002060008473ffffffffffffffffffffffffffffffffffffffff1673ffffffffffffffffffffffffffffffffffffffff16815260200190815260200160002060006101000a81548160ff0219169083151502179055508173ffffffffffffffffffffffffffffffffffffffff168373ffffffffffffffffffffffffffffffffffffffff167f17307eab39ab6107e8899845ad3d59bd9653f200f220920489ca2b5937696c3183604051611f4d91906125b9565b60405180910390a3505050565b611f6584848461187b565b611f7184848484612208565b611fb0576040517f08c379a0000000000000000000000000000000000000000000000000000000008152600401611fa790613750565b60405180910390fd5b50505050565b606060405180602001604052806000815250905090565b606060006001611fdc8461238f565b01905060008167ffffffffffffffff811115611ffb57611ffa6127e5565b5b6040519080825280601f01601f19166020018201604052801561202d5781602001600182028036833780820191505090505b509050600082602001820190505b600115612090578080600190039150507f3031323334353637383961626364656600000000000000000000000000000000600a86061a8153600a858161208457612083613770565b5b0494506000850361203b575b819350505050919050565b60008073ffffffffffffffffffffffffffffffffffffffff166120bd83611db1565b73ffffffffffffffffffffffffffffffffffffffff1614159050919050565b60018111156121fc57600073ffffffffffffffffffffffffffffffffffffffff168473ffffffffffffffffffffffffffffffffffffffff16146121705780600360008673ffffffffffffffffffffffffffffffffffffffff1673ffffffffffffffffffffffffffffffffffffffff1681526020019081526020016000206000828254612168919061379f565b925050819055505b600073ffffffffffffffffffffffffffffffffffffffff168373ffffffffffffffffffffffffffffffffffffffff16146121fb5780600360008573ffffffffffffffffffffffffffffffffffffffff1673ffffffffffffffffffffffffffffffffffffffff16815260200190815260200160002060008282546121f391906137d3565b925050819055505b5b50505050565b50505050565b60006122298473ffffffffffffffffffffffffffffffffffffffff166124e2565b15612382578373ffffffffffffffffffffffffffffffffffffffff1663150b7a02612252611725565b8786866040518563ffffffff1660e01b8152600401612274949392919061385c565b6020604051808303816000875af19250505080156122b057506040513d601f19601f820116820180604052508101906122ad91906138bd565b60015b612332573d80600081146122e0576040519150601f19603f3d011682016040523d82523d6000602084013e6122e5565b606091505b50600081510361232a576040517f08c379a000000000000000000000000000000000000000000000000000000000815260040161232190613750565b60405180910390fd5b805181602001fd5b63150b7a0260e01b7bffffffffffffffffffffffffffffffffffffffffffffffffffffffff1916817bffffffffffffffffffffffffffffffffffffffffffffffffffffffff191614915050612387565b600190505b949350505050565b600080600090507a184f03e93ff9f4daa797ed6e38ed64bf6a1f01000000000000000083106123ed577a184f03e93ff9f4daa797ed6e38ed64bf6a1f01000000000000000083816123e3576123e2613770565b5b0492506040810190505b6d04ee2d6d415b85acef8100000000831061242a576d04ee2d6d415b85acef810000000083816124205761241f613770565b5b0492506020810190505b662386f26fc10000831061245957662386f26fc10000838161244f5761244e613770565b5b0492506010810190505b6305f5e1008310612482576305f5e100838161247857612477613770565b5b0492506008810190505b61271083106124a757612710838161249d5761249c613770565b5b0492506004810190505b606483106124ca57606483816124c0576124bf613770565b5b0492506002810190505b600a83106124d9576001810190505b80915050919050565b6000808273ffffffffffffffffffffffffffffffffffffffff163b119050919050565b6000604051905090565b600080fd5b600080fd5b60007fffffffff0000000000000000000000000000000000000000000000000000000082169050919050565b61254e81612519565b811461255957600080fd5b50565b60008135905061256b81612545565b92915050565b6000602082840312156125875761258661250f565b5b60006125958482850161255c565b91505092915050565b60008115159050919050565b6125b38161259e565b82525050565b60006020820190506125ce60008301846125aa565b92915050565b600081519050919050565b600082825260208201905092915050565b60005b8381101561260e5780820151818401526020810190506125f3565b60008484015250505050565b6000601f19601f8301169050919050565b6000612636826125d4565b61264081856125df565b93506126508185602086016125f0565b6126598161261a565b840191505092915050565b6000602082019050818103600083015261267e818461262b565b905092915050565b6000819050919050565b61269981612686565b81146126a457600080fd5b50565b6000813590506126b681612690565b92915050565b6000602082840312156126d2576126d161250f565b5b60006126e0848285016126a7565b91505092915050565b600073ffffffffffffffffffffffffffffffffffffffff82169050919050565b6000612714826126e9565b9050919050565b61272481612709565b82525050565b600060208201905061273f600083018461271b565b92915050565b61274e81612709565b811461275957600080fd5b50565b60008135905061276b81612745565b92915050565b600080604083850312156127885761278761250f565b5b60006127968582860161275c565b92505060206127a7858286016126a7565b9150509250929050565b6127ba81612686565b82525050565b60006020820190506127d560008301846127b1565b92915050565b600080fd5b600080fd5b7f4e487b7100000000000000000000000000000000000000000000000000000000600052604160045260246000fd5b61281d8261261a565b810181811067ffffffffffffffff8211171561283c5761283b6127e5565b5b80604052505050565b600061284f612505565b905061285b8282612814565b919050565b600067ffffffffffffffff82111561287b5761287a6127e5565b5b6128848261261a565b9050602081019050919050565b82818337600083830152505050565b60006128b36128ae84612860565b612845565b9050828152602081018484840111156128cf576128ce6127e0565b5b6128da848285612891565b509392505050565b600082601f8301126128f7576128f66127db565b5b81356129078482602086016128a0565b91505092915050565b600080604083850312156129275761292661250f565b5b60006129358582860161275c565b925050602083013567ffffffffffffffff81111561295657612955612514565b5b612962858286016128e2565b9150509250929050565b6000806000606084860312156129855761298461250f565b5b60006129938682870161275c565b93505060206129a48682870161275c565b92505060406129b5868287016126a7565b9150509250925092565b600080600080608085870312156129d9576129d861250f565b5b60006129e78782880161275c565b945050602085013567ffffffffffffffff811115612a0857612a07612514565b5b612a14878288016128e2565b935050604085013567ffffffffffffffff811115612a3557612a34612514565b5b612a41878288016128e2565b925050606085013567ffffffffffffffff811115612a6257612a61612514565b5b612a6e878288016128e2565b91505092959194509250565b6000606082019050612a8f60008301866127b1565b612a9c602083018561271b565b8181036040830152612aae818461262b565b9050949350505050565b6000608082019050612acd60008301876127b1565b8181036020830152612adf818661262b565b90508181036040830152612af3818561262b565b90508181036060830152612b07818461262b565b905095945050505050565b600060208284031215612b2857612b2761250f565b5b6000612b368482850161275c565b91505092915050565b612b488161259e565b8114612b5357600080fd5b50565b600081359050612b6581612b3f565b92915050565b60008060408385031215612b8257612b8161250f565b5b6000612b908582860161275c565b9250506020612ba185828601612b56565b9150509250929050565b600067ffffffffffffffff821115612bc657612bc56127e5565b5b612bcf8261261a565b9050602081019050919050565b6000612bef612bea84612bab565b612845565b905082815260208101848484011115612c0b57612c0a6127e0565b5b612c16848285612891565b509392505050565b600082601f830112612c3357612c326127db565b5b8135612c43848260208601612bdc565b91505092915050565b60008060008060808587031215612c6657612c6561250f565b5b6000612c748782880161275c565b9450506020612c858782880161275c565b9350506040612c96878288016126a7565b925050606085013567ffffffffffffffff811115612cb757612cb6612514565b5b612cc387828801612c1e565b91505092959194509250565b60008060408385031215612ce657612ce561250f565b5b6000612cf48582860161275c565b9250506020612d058582860161275c565b9150509250929050565b7f4e487b7100000000000000000000000000000000000000000000000000000000600052602260045260246000fd5b60006002820490506001821680612d5657607f821691505b602082108103612d6957612d68612d0f565b5b50919050565b7f4552433732313a20617070726f76616c20746f2063757272656e74206f776e6560008201527f7200000000000000000000000000000000000000000000000000000000000000602082015250565b6000612dcb6021836125df565b9150612dd682612d6f565b604082019050919050565b60006020820190508181036000830152612dfa81612dbe565b9050919050565b7f4552433732313a20617070726f76652063616c6c6572206973206e6f7420746f60008201527f6b656e206f776e6572206f7220617070726f76656420666f7220616c6c000000602082015250565b6000612e5d603d836125df565b9150612e6882612e01565b604082019050919050565b60006020820190508181036000830152612e8c81612e50565b9050919050565b7f596f7520617265206e6f7420617574686f72697a656420746f2063726561746560008201527f20616e2041646d696e0000000000000000000000000000000000000000000000602082015250565b6000612eef6029836125df565b9150612efa82612e93565b604082019050919050565b60006020820190508181036000830152612f1e81612ee2565b9050919050565b7f4e487b7100000000000000000000000000000000000000000000000000000000600052601160045260246000fd5b6000612f5f82612686565b91507fffffffffffffffffffffffffffffffffffffffffffffffffffffffffffffffff8203612f9157612f90612f25565b5b600182019050919050565b60008190508160005260206000209050919050565b60006020601f8301049050919050565b600082821b905092915050565b600060088302612ffe7fffffffffffffffffffffffffffffffffffffffffffffffffffffffffffffffff82612fc1565b6130088683612fc1565b95508019841693508086168417925050509392505050565b6000819050919050565b600061304561304061303b84612686565b613020565b612686565b9050919050565b6000819050919050565b61305f8361302a565b61307361306b8261304c565b848454612fce565b825550505050565b600090565b61308861307b565b613093818484613056565b505050565b5b818110156130b7576130ac600082613080565b600181019050613099565b5050565b601f8211156130fc576130cd81612f9c565b6130d684612fb1565b810160208510156130e5578190505b6130f96130f185612fb1565b830182613098565b50505b505050565b600082821c905092915050565b600061311f60001984600802613101565b1980831691505092915050565b6000613138838361310e565b9150826002028217905092915050565b613151826125d4565b67ffffffffffffffff81111561316a576131696127e5565b5b6131748254612d3e565b61317f8282856130bb565b600060209050601f8311600181146131b257600084156131a0578287015190505b6131aa858261312c565b865550613212565b601f1984166131c086612f9c565b60005b828110156131e8578489015182556001820191506020850194506020810190506131c3565b868310156132055784890151613201601f89168261310e565b8355505b6001600288020188555050505b505050505050565b7f4552433732313a2063616c6c6572206973206e6f7420746f6b656e206f776e6560008201527f72206f7220617070726f76656400000000000000000000000000000000000000602082015250565b6000613276602d836125df565b91506132818261321a565b604082019050919050565b600060208201905081810360008301526132a581613269565b9050919050565b7f596f7520617265206e6f74204f776e6572210000000000000000000000000000600082015250565b60006132e26012836125df565b91506132ed826132ac565b602082019050919050565b60006020820190508181036000830152613311816132d5565b9050919050565b7f4552433732313a20696e76616c696420746f6b656e2049440000000000000000600082015250565b600061334e6018836125df565b915061335982613318565b602082019050919050565b6000602082019050818103600083015261337d81613341565b9050919050565b7f4552433732313a2061646472657373207a65726f206973206e6f74206120766160008201527f6c6964206f776e65720000000000000000000000000000000000000000000000602082015250565b60006133e06029836125df565b91506133eb82613384565b604082019050919050565b6000602082019050818103600083015261340f816133d3565b9050919050565b600081905092915050565b600061342c826125d4565b6134368185613416565b93506134468185602086016125f0565b80840191505092915050565b600061345e8285613421565b915061346a8284613421565b91508190509392505050565b7f4552433732313a207472616e736665722066726f6d20696e636f72726563742060008201527f6f776e6572000000000000000000000000000000000000000000000000000000602082015250565b60006134d26025836125df565b91506134dd82613476565b604082019050919050565b60006020820190508181036000830152613501816134c5565b9050919050565b7f4552433732313a207472616e7366657220746f20746865207a65726f2061646460008201527f7265737300000000000000000000000000000000000000000000000000000000602082015250565b60006135646024836125df565b915061356f82613508565b604082019050919050565b6000602082019050818103600083015261359381613557565b9050919050565b7f4552433732313a206d696e7420746f20746865207a65726f2061646472657373600082015250565b60006135d06020836125df565b91506135db8261359a565b602082019050919050565b600060208201905081810360008301526135ff816135c3565b9050919050565b7f4552433732313a20746f6b656e20616c7265616479206d696e74656400000000600082015250565b600061363c601c836125df565b915061364782613606565b602082019050919050565b6000602082019050818103600083015261366b8161362f565b9050919050565b7f4552433732313a20617070726f766520746f2063616c6c657200000000000000600082015250565b60006136a86019836125df565b91506136b382613672565b602082019050919050565b600060208201905081810360008301526136d78161369b565b9050919050565b7f4552433732313a207472616e7366657220746f206e6f6e20455243373231526560008201527f63656976657220696d706c656d656e7465720000000000000000000000000000602082015250565b600061373a6032836125df565b9150613745826136de565b604082019050919050565b600060208201905081810360008301526137698161372d565b9050919050565b7f4e487b7100000000000000000000000000000000000000000000000000000000600052601260045260246000fd5b60006137aa82612686565b91506137b583612686565b92508282039050818111156137cd576137cc612f25565b5b92915050565b60006137de82612686565b91506137e983612686565b925082820190508082111561380157613800612f25565b5b92915050565b600081519050919050565b600082825260208201905092915050565b600061382e82613807565b6138388185613812565b93506138488185602086016125f0565b6138518161261a565b840191505092915050565b6000608082019050613871600083018761271b565b61387e602083018661271b565b61388b60408301856127b1565b818103606083015261389d8184613823565b905095945050505050565b6000815190506138b781612545565b92915050565b6000602082840312156138d3576138d261250f565b5b60006138e1848285016138a8565b9150509291505056fea2646970667358221220e3405f1b17babbf563dc78fd7ff96bf7d528316ff1da6e4b21077985aedf62c164736f6c634300081100334e6f6e2d46756e6769626c6520546f6b656e20436f77204365727469666963617465",
  "immutableReferences": {},
  "source": "// SPDX-License-Identifier: GPL-3.0\r\npragma solidity >=0.7.0 <0.9.0;\r\nimport \"../node_modules/@openzeppelin/contracts/token/ERC721/ERC721.sol\";\r\n\r\ncontract NFTCowCert is ERC721 {\r\n    // Permission address at create Certificate and send new cert to Customers.\r\n    uint256 public ownerCount = 0;\r\n    uint256 public NFTCowCount = 0;\r\n    address[] government;\r\n    struct AdAdmin {\r\n        uint256 userId;\r\n        address government;\r\n        string username;\r\n    }\r\n    struct AddNFTCow {\r\n        uint256 id;\r\n        string tokendId;\r\n        string cowCertlist;\r\n        string imgPath;\r\n    }\r\n    mapping(uint256 => AdAdmin) public TaskMapOwner;\r\n    mapping(uint256 => AddNFTCow) public BlocklistNFTCow;\r\n    mapping(uint256 => bool) public blockCowcert;\r\n\r\n    // mapping(uint256 => bool) internal blockCowcert;\r\n    constructor() ERC721(\"Non-Fungible Token Cow Certificate\", \"NFTCC\") {\r\n        TaskMapOwner[ownerCount] = AdAdmin(ownerCount, msg.sender, \"Suradath\");\r\n    }\r\n\r\n    modifier onlyGovernment() {\r\n        for (uint256 i = 0; i <= ownerCount; i++) {\r\n            if (TaskMapOwner[i].government == msg.sender) {\r\n                require(\r\n                    msg.sender == TaskMapOwner[i].government,\r\n                    \"You are not Owner!\"\r\n                );\r\n                break;\r\n            }\r\n        }\r\n        require(\r\n            msg.sender == TaskMapOwner[ownerCount].government,\r\n            \"You are not Owner!\"\r\n        );\r\n        _;\r\n    }\r\n    event TaskCreatedadmin(uint256 userId, address government, string username);\r\n    event TaskCreateNFTCowCert(\r\n        uint256 id,\r\n        string tokendid,\r\n        string cowCertlist,\r\n        string imgPath\r\n    );\r\n\r\n    function addNFTCowAdmin(address _government, string memory _username) public {\r\n        require(\r\n            msg.sender == TaskMapOwner[0].government,\r\n            \"You are not authorized to create an Admin\"\r\n        );\r\n        ownerCount++;\r\n        TaskMapOwner[ownerCount] = AdAdmin(ownerCount, _government, _username);\r\n        emit TaskCreatedadmin(ownerCount, _government, _username);\r\n    }\r\n\r\n    function tokenMintCowCert(\r\n        address _custCowCert,\r\n        string memory _tokenId,\r\n        string memory _cowCertlist,\r\n        string memory _imgPath\r\n    ) public onlyGovernment {\r\n        NFTCowCount++;\r\n        BlocklistNFTCow[NFTCowCount] = AddNFTCow(\r\n            NFTCowCount,\r\n            _tokenId,\r\n            _cowCertlist,\r\n            _imgPath\r\n        );\r\n        // super._mint(_custCowCert, _tokenId);\r\n        super._mint(_custCowCert, NFTCowCount);\r\n        emit TaskCreateNFTCowCert(NFTCowCount, _tokenId, _cowCertlist, _imgPath);\r\n    }\r\n\r\n    // Stop or block Cowcoin Nft from buying or selling.\r\n    function blockNFTCow(uint256 _tokenId) public onlyGovernment {\r\n        blockCowcert[_tokenId] = true;\r\n    }\r\n\r\n    function unBlockNFTCow(uint256 _tokenId) public onlyGovernment {\r\n        blockCowcert[_tokenId] = false;\r\n    }\r\n\r\n    // Setup sell  Customer Payment to sell  Customer type P2P\r\n    function safeTransferFrom(\r\n        address _from,\r\n        address _to,\r\n        uint256 _tokenId\r\n    ) public virtual override {\r\n        require(blockCowcert[_tokenId] == false);\r\n        super.safeTransferFrom(_from, _to, _tokenId);\r\n    }\r\n}\r\n",
  "sourcePath": "D:\\Lab-project\\cowcertnft\\contracts\\NFTCowCert.sol",
  "compiler": {
    "name": "solc",
    "version": "0.8.17+commit.8df45f5f.Emscripten.clang"
  },
  "schemaVersion": "3.4.11",
  "updatedAt": "2023-02-07T05:36:11.134Z",
  "networkType": "ethereum",
  "devdoc": {
    "kind": "dev",
    "methods": {
      "approve(address,uint256)": {
        "details": "See {IERC721-approve}."
      },
      "balanceOf(address)": {
        "details": "See {IERC721-balanceOf}."
      },
      "getApproved(uint256)": {
        "details": "See {IERC721-getApproved}."
      },
      "isApprovedForAll(address,address)": {
        "details": "See {IERC721-isApprovedForAll}."
      },
      "name()": {
        "details": "See {IERC721Metadata-name}."
      },
      "ownerOf(uint256)": {
        "details": "See {IERC721-ownerOf}."
      },
      "safeTransferFrom(address,address,uint256,bytes)": {
        "details": "See {IERC721-safeTransferFrom}."
      },
      "setApprovalForAll(address,bool)": {
        "details": "See {IERC721-setApprovalForAll}."
      },
      "supportsInterface(bytes4)": {
        "details": "See {IERC165-supportsInterface}."
      },
      "symbol()": {
        "details": "See {IERC721Metadata-symbol}."
      },
      "tokenURI(uint256)": {
        "details": "See {IERC721Metadata-tokenURI}."
      },
      "transferFrom(address,address,uint256)": {
        "details": "See {IERC721-transferFrom}."
      }
    },
    "version": 1
  },
  "userdoc": {
    "kind": "user",
    "methods": {},
    "version": 1
  }
}